:020000040800F2
:1000000078730124AD020008F9A10008C98B00082B
:10001000F1A100087911000881E500080000000046
:1000200000000000000000000000000031AC0008EB
:10003000B11A00080000000071A2000859AF0008C2
:10004000C7020008C7020008C7020008C70200086C
:10005000C7020008C7020008C7020008C70200085C
:10006000C7020008F11C0008C702000809160008B2
:100070001916000829160008391600084916000844
:100080005916000869160008C7020008C7020008D0
:10009000C7020008C7020008C7020008C70200081C
:1000A000C7020008C7020008C7020008C70200080C
:1000B000C7020008C7020008C7020008C7020008FC
:1000C000C7020008C7020008C7020008C7020008EC
:1000D000C702000889C4000899C40008A9C4000820
:1000E000C7020008C702000800000000C70200089D
:1000F000C7020008C7020008C702000879160008F6
:10010000C7020008C7020008C7020008C7020008AB
:1001100079B20008C7020008C7020008C702000839
:1001200089160008C7020008C7020008C7020008B5
:10013000C7020008C7020008C7020008C70200087B
:1001400000000000000000000000000000000000AF
:10015000C7020008C7020008C7020008B9C40008A7
:10016000C7020008C7020008C7020008C70200084B
:10017000C7020008C7020008C7020008C70200083B
:10018000C7020008C7020008C702000889B20008B9
:10019000D1AA0008C7020008C7020008C702000869
:1001A000C7020008C7020008C7020008C70200080B
:1001B000C7020008C7020008C7020008C7020008FB
:1001C000C7020008C7020008C7020008C7020008EB
:1001D000C702000851A20008C7020008C7020008B1
:1001E000C7020008C7020008C7020008C7020008CB
:1001F000C7020008C7020008C7020008C7020008BB
:10020000C7020008C7020008C7020008C7020008AA
:10021000C702000819B1000829B10008C702000888
:10022000C7020008C7020008C7020008000000005B
:10023000C7020008C702000800000000C70200084B
:10024000C7020008C7020008C7020008C70200086A
:10025000C7020008C7020008C7020008C70200085A
:10026000C7020008C7020008C7020008C70200084A
:10027000C7020008C7020008C19300080000000080
:10028000C7020008C7020008C702000800000000FB
:1002900000000000C7020008DFF80CD000F08AFC64
:1002A00000480047B1EF00087873012406488047F2
:1002B00006480047FEE7FEE7FEE7FEE7FEE7FEE74B
:1002C000FEE7FEE7FEE7FEE749B0000899020008F6
:1002D0002DE9F05F0546002092469B46884606467B
:1002E000814640241BE0284641464746224600F00E
:1002F00071FA53465A46C01A914110D31146184616
:10030000224600F058FA2D1A67EB01084F462246A4
:100310000120002100F04FFA17EB00094E41201E8A
:10032000A4F10104DFDC484631462A464346BDE8D5
:10033000F09F000000487047BC4C010810B504460F
:10034000FFF7F8FF0068005D00F0010010BD40EA13
:1003500001039B0703D009E008C9121F08C0042A43
:10036000FAD203E011F8013B00F8013B521EF9D22A
:100370007047D2B201E000F8012B491EFBD2704752
:100380000022F6E710B513460A4604461946FFF761
:10039000F0FF204610BD421C10F8011B0029FBD1C4
:1003A000801A704710B5002200E0521C835C8C5C00
:1003B000A34201D1002BF8D1D8B2E1B2401A10BD4E
:1003C0000022CBB20178994200D10246401C00299C
:1003D000F8D11046704700000FB400B58DB010A9D9
:1003E00009900B9000914FF0FF300A9000200C9084
:1003F00005480690054807906A4609A80F9900F03D
:10040000FFF90DB05DF814FB1D0800083B0800085B
:100410002DE9FF4F087883B09946FF2805D0491C85
:100420002D2804D00024002008E000200BE0012447
:10043000F9E700EB800003EB4000491C0B78FF2B31
:10044000F7D104B1404200230293147819461D46A7
:100450002D2C01D02B2C04D1521C2D2C13D0002478
:100460000294AA461478FF2C0FD00A25A3FB057826
:1004700001FB05814FF0000C03FB0C11521CE3192A
:100480004AEB0101EEE70124EAE7814453EA010067
:1004900002D019F5C87F06DA03980021C0E90011DF
:1004A00007B0BDE8F08F0025AE4E2F46DFF8B882CA
:1004B000184600F057FBCDE90001B9F1000002DA5F
:1004C000C9F1000400E004460023A74A1AEB030B1D
:1004D00042EB045A12E0E00707D02A46334638467A
:1004E000414600F047FA074688462A4633461046FA
:1004F000194600F03FFA05460E466410002CEAD17A
:10050000DDE90001B9F1000F5A46534606DA00F062
:10051000A3FA3A46434600F09FFA05E000F02AFAB3
:100520003A46434600F026FA029A0AB181F00041A9
:10053000039AC2E90001B3E72DE9FF4F1F468DB0D2
:10054000D7E901464FF0FF382E2045464FF000090D
:100550000B90B9696D1C0E988847396A82468847A6
:100560000028F6D1BAF1FF3F0AD024F4D064002E5F
:1005700011DDBAF12B0F08D0BAF12D0F0BD102E02B
:10058000404611B08DE744F48064B9696D1C0E9843
:1005900088478246761E6946600501D52D2000E019
:1005A0002B208DF8000001F1010B0DF1200809E06E
:1005B000B9696D1C0E98884782460F9844F4007400
:1005C000761E0560002E02DDBAF1300FF0D00B99D7
:1005D0008A453ED144F0800406E00F99681CA9F1D9
:1005E000010944F400740860B9696D1C761E0E9808
:1005F000884782463028F0D02BE00B998A4505D1F8
:10060000200603D444F08004761E18E0504614F00F
:100610005FF908B30DF11302761EAAF1300044F41D
:100620000074934506D20BF8010B200607D5A9F1FB
:10063000010003E0200602D409F101008146A00573
:1006400002D50F99681C0860B9696D1C0E9888471F
:100650008246002ED1DC53E0002E51DDBAF1650F49
:1006600002D0BAF1450F4BD1A00549D5B9696D1C2F
:1006700024F44074761E0E9888478246002E0CDDC6
:100680002B2804D0BAF12D0F07D144F48074B96936
:100690006D1C0E9888478246761EE00501D52D21F7
:1006A00000E02B2108F8011BCDF82C8021E00DF192
:1006B0002901761E44F4007488450CD2AAF130005A
:1006C00010F0FF0088F8000002D10B99884509D985
:1006D00008F1010806E0E00501D5244801E042F2F6
:1006E0000F708146B9696D1C0E98884782460F9835
:1006F0000560002E04DD504614F0EAF80028D6D13B
:10070000F9690E988847FF208BF8000088F80000F0
:100710000020069007904B466A4608A906A8FFF7F6
:1007200077FEA00502D46FF001002AE714F0240F31
:100730000AD0E00714D1DDE906123868031D3B60DA
:100740000068C0E900120BE0DDE9060100F016FACE
:100750000146E00704D13868021D3A600068016074
:1007600028460EE7000014400000F03FF1D8FFFFDC
:1007700070B5064612F066FC046805460A220021A0
:10078000304600F0BFF82C6070BD30B50B46014616
:1007900000202022012409E021FA02F59D4205D320
:1007A00003FA02F5491B04FA02F52844151EA2F1CA
:1007B0000102F1DC30BD202A04DB203A00FA02F10C
:1007C000002070479140C2F1200320FA03F319433F
:1007D00090407047202A04DB203A21FA02F00021E1
:1007E000704721FA02F3D040C2F120029140084341
:1007F0001946704702681144137801601846704723
:10080000D16004495161044911620021116111460E
:1008100000F0E2B9F50700083D030008426842B164
:10082000016811F8013B23B1521EC0E900121846BD
:1008300070470121C160881E704742685AB1C36881
:10084000016843B983688B4205D0491E521CC0E938
:100850000012002070474FF0FF3070470FB40B00BC
:1008600010B58AB00FA900910E994FF00004234AE9
:10087000CC60214CCDE9064200D004236FF0004249
:10088000CDE901321E4A089202466B460020FFF76E
:1008900053FE0AB010BC5DF814FBF0B585B00746F6
:1008A0004FF0FF300091CDE901011E4600201546B2
:1008B0000C4604903B466A46314604A8FFF7CEFF3B
:1008C00004990346601825B109B1024600E02246AA
:1008D0002A6000290ED0002B02DD0099814209D048
:1008E0000094001BCDE901043B466A46314604A84A
:1008F000FFF7B4FF05B0F0BD1D0800083B08000875
:100900003D0300082DE9F04791460F468046044616
:10091000002614F8015B2DB1FFF70CFD0068405D67
:10092000C007F6D12B2D02D02D2D18D0641E4A46BB
:100930003946204600F0E6FA27B13968A14201D1D4
:10094000C7F8008071054FF002040BD54042002823
:1009500003DD12F077FB0460A007BDE8F08746F4E2
:100960008066E4E70028F8DA12F06CFB04606FF0B0
:100970000040F2E72DE9FE4F81EA030404F0004451
:1009800021F0004100944FF0000B23F0004350EAA7
:1009900001045ED052EA03045BD0C3F30A54C1F3EE
:1009A0000A552C44A4F2F3340194A0FB0254C1F381
:1009B000130141F48011C3F3130343F4801301FBCB
:1009C000024400FB034E840A970A44EA815447EA32
:1009D0008357A4FB076802958D0A05FB07854FEA3C
:1009E000932C04FB0C542705029D4FEA065847EA56
:1009F0001637B5EB08056EEB070C870E920E47EA2B
:100A0000811742EA8312A7FB0201B6EB0B0164EBEC
:100A100000042B0D43EA0C335E1844EB1C50DA46FD
:100A20005146E7FB0201C5F313044FEA0B3343EAD7
:100A300014534FEA0432019C43EA0603A4F10C0468
:100A40000294009CCDE900B400F0F1FA03B0BDE8D7
:100A5000F08F00200146F9E72DE9F04D81EA03040B
:100A600004F0004B21F0004514464FF0000A23F03B
:100A7000004150EA050220D054EA01021DD0C5F31E
:100A80000A570246C5F31303C1F31300C1F30A5614
:100A900040F4801543F48013A7EB0608101BD646DC
:100AA00008F2FD3873EB050002D308F1010801E0FC
:100AB00092185B41B8F1000F03DA00200146BDE84F
:100AC000F08D00204FF48011064684460EE0171B7F
:100AD00073EB050705D3121B63EB050306434CEAD2
:100AE000010C49084FEA300092185B4150EA0107B7
:100AF000EDD152EA030012D082EA040083EA050134
:100B0000084305D0101BAB4106D20122002306E0AA
:100B100000224FF0004302E06FF0010253101AEB85
:100B200006004CEB085110EB0A0041EB0B01BDE84D
:100B3000F04D00F06DBA70B521F0004303430CD0C6
:100B4000C1F30A550024D5EB040564EB0403D61762
:100B5000AD1AB34102DB0020014670BD201841EB05
:100B6000025170BD0EB540F2334202920022CDE92F
:100B70000022134600F05BFA03B000BD01F0004311
:100B800030B421F0004150EA010206D00A0DA2F56E
:100B90006072C1F31301002A02DC30BC00207047F0
:100BA000440F44EAC104C100E01830BC00EBC2505D
:100BB00000F0F7B9064C074D06E0E06840F001038D
:100BC00094E8070098471034AC42F6D3FFF768FB6F
:100BD00004560108245601082DE9F34F8BB04FF05D
:100BE000000801F10C000C464FF0010B46460DF1D8
:100BF000080A01906269012101989047051E2DD0D5
:100C0000252D2CD0216A8847C0B162690121019845
:100C10009047216A88470028F7D1411E62690198F0
:100C2000904700E0761CA1690B988847216A8847A5
:100C30000028F7D1E1690B988847DBE7A1690B9899
:100C400088470746A84201D1761CD3E7E1690B9893
:100C500088477F1C02D1B8F1000F6FD046E1002712
:100C600062693D463946019890472A2804D1626955
:100C70000121019890470125DFF8849262690121E2
:100C800001989047A0F130010A290AD24F45E5DCCE
:100C900007EB870100EB4107303FDFD445F010053B
:100CA000ECE7E90601D46FF000476C280AD04C2825
:100CB00014D0682815D06A280DD074281CD07A2842
:100CC0001AD01DE062690121019890476C2802D07A
:100CD00045F0040514E045F002050DE045F020055F
:100CE0000AE06269012101989047682802D045F026
:100CF000080505E045F40065626901210198904707
:100D0000C4E9015765283DD019DC58287AD00CDC9D
:100D1000452837D004DC252826D0412831D131E0C0
:100D200046282FD047282CD12CE05B2877D061288B
:100D300028D063287CD0642823D15AE0D0E06F28E3
:100D400048D008DC66281DD067281BD0692821D030
:100D50006E2816D127E0702845D0732868D07528F2
:100D600047D078280DD14DE0A1690B9888470546FA
:100D700025283FF469AFE1690B9888476D1C3FF463
:100D80006AAFB3E023466A466FF001000B99FFF7A4
:100D9000D3FB9EE045F040006060A80723464FF07B
:100DA000000236D43EE0E8077FF447AF2068011D1B
:100DB00021600068290501D506701BE7290701D5C8
:100DC000068017E7A90703D5F117C0E9006111E70D
:100DD00006600FE745F040006060A80723464FF02B
:100DE000080216D41EE040F60E0125EA01006060FC
:100DF00016E045F040006060A80723464FF00A0265
:100E000007D40FE045F040006060A80708D52346EE
:100E100010226FF001000B99AFF3008059E007E05A
:100E2000234610226FF001000B99AFF3008050E0D1
:100E30004FF000094F464B46632802D05B2806D08E
:100E400040E0E80601D40120A06001273AE0626991
:100E50000121019890475E2805D14FF00109626990
:100E6000494601989047216939B900210A465346FD
:100E700043F82120491C0829FADBB0B3216969B97C
:100E8000C11700EBD16253110AEB830122F01F025C
:100E9000821A01200B68904003430B6062690121B4
:100EA000019890475D28E8D1B9F1000F09D00020E2
:100EB000514651F82020D24341F82020401C0828F8
:100EC000F7DB02AB224600976FF001000B99AFF3FE
:100ED000008000280CDA401C08D1BBF1000F05D0BF
:100EE0004FF0FF300DB0BDE8F08FFFE74046F9E767
:100EF000E90701D108F1010806444FF0000B79E63B
:100F0000CCCCCC0C2DE9F05F82460078002715464A
:100F10008B460AF10104B946302801D09DB113E097
:100F200014F8010B0127782803D0582801D045B1C7
:100F30000AE00DB1102D07D10027102514F8010B80
:100F400002E0082500E00A250026B0460EE005FB79
:100F5000080005FB06F1012701EB10461FFA80F897
:100F6000B6F5803F00D3B94614F8010B294600F0CE
:100F7000ACF80028EBDABBF1000F05D00FB1641E0E
:100F800000E05446CBF80040B9F1000F06D012F053
:100F900059F802210160C81EBDE8F09F48EA0640EA
:100FA000FAE70029A8BF7047401C490008BF20F09D
:100FB0000100704710B4B0FA80FC00FA0CF050EA5F
:100FC000010404BF10BC704749B1CCF1200421FAE0
:100FD00004F411FA0CF118BF012121430843A3EBDB
:100FE0000C01CB1D4FEA00614FEA102042BF0020E8
:100FF00010BC704700EBC35010440029A4BF10BCC4
:101000007047401C490008BF20F0010010BC704729
:1010100010B5141E73F1000408DA401C41F1000100
:1010200092185B411A4301D120F0010010BD2DE957
:10103000F04D92469B4611B1B1FA81F202E0B0FA4E
:1010400080F220329046FFF7B6FB04460F4640EA96
:101050000A0041EA0B0153465A46084313D0114691
:1010600053EA010019D0C8F140025046FFF7B2FB25
:1010700005460E46504659464246FFF79CFB08433C
:1010800005D0012004E020463946BDE8F08D00205F
:10109000054346EAE0762C4337430A986305E40AA1
:1010A000A0EB08000022FD0A44EA47540A3002D5AA
:1010B00000200146E9E7010510196941DDE908450D
:1010C00000196941BDE8F04DA2E73A2800D2303856
:1010D00020F02002412A01D3A2F13700884201D337
:1010E0004FF0FF30704730B58C1810F8012B12F01C
:1010F0000F0301D110F8013B120906D110F8012BA2
:1011000003E010F8015B01F8015B5B1EF9D101E01F
:1011100001F8013B521EFBD1A142E6D3002030BDB5
:1011200080B583B00022EC4600EB020E8B189EEDDA
:10113000000A93ED001A0CEB0203043230EE010AB0
:101140000C2A83ED000AEFD1BDEC030A80BD00003C
:10115000031F043A04390F2091ED010A92ED011AA0
:1011600030EE010A03F1040C04310432013883ED3E
:10117000010A6346F0D17047FEE70000000000005E
:1011800000207047000000000020704700000000B1
:1011900010B544F6E41443F67871C2F20044C2F28A
:1011A0000041002220460BF067FB43F27871204695
:1011B000C2F200410BF050FB002010BD0000000007
:1011C0002DE9F04182B044F6E4160546C2F200462D
:1011D0000C46304629460BF03FFB30460BF018FB1F
:1011E0002068A8B146F298180027C2F201480DF114
:1011F000070600BFE85D00228DF80700D8F8000060
:10120000002331460EF0F4FA013720688742F1D30B
:10121000002002B0BDE8F08100207047000000000F
:1012200010B544F6E412C2F20042D2F8BC22D2F861
:101230001422002A1CBF012010BD44F6E4140A4603
:10124000C2F20044014620460BF016FB2046BDE8E2
:1012500010400BF0B1BB000070B52DED028B82B0D9
:1012600090ED021A9FED2C2A90ED010A31EE021A40
:101270009FED2D3A90ED004A20EE030A45F2E8700A
:1012800024EE033A9FED254A21EE041A9FED244AED
:1012900080EE020AC2F2004083EE022A9FED233A5A
:1012A00081EE041A9FED1F4A30EE030A006832EE09
:1012B000032A40F6B83131EE041ABDEEC08ABDEE05
:1012C000C20ABDEEC11A80ED0F1A18EE100A10EE18
:1012D000104A0E1A0D1B10F037FB019646F24426F9
:1012E000C2F2004645F25A51C0F60101304622468C
:1012F0002B468DED008A11F079FE11F091FD45F637
:101300005C103222C2F20040314602B0BDEC028BCA
:10131000BDE8704007F0A0BB00007F4300004844D8
:101320000000FF43008089440000164400009644FA
:101330002DE9F04FADF6141D41F290340DF24C78CA
:10134000C2F2004454F83C1FCDF8F0186168CDF8A3
:10135000F418A168CDF8F818E168CDF8FC182169F7
:10136000CDF800196169CDF80419A169CDF8081903
:10137000E169CDF80C19216ACDF810190168CDF892
:10138000E4184168CDF8E8188068CDF8EC080DF550
:101390000F600DF6E4010DF02BFF08F5CC7041F263
:1013A000A445C2F2004594ED112A80EC030A41F6EF
:1013B000942094ED123A05EB000B41F6081032EE42
:1013C000400A94ED132A05EB00090DF27C7733EE09
:1013D000603A384632EE411A49468BED000A8BEDF1
:1013E000013A8BED021A0FF0ABFD0DF5036A05F122
:1013F000780150463A4601910EF006F80DF5EB677C
:101400004946384652460EF0A7F841F6BC10394618
:101410002A18E3A80DF018FAE398CDF85807E498D5
:10142000CDF85C07E598CDF86007E698CDF864073D
:10143000E798CDF86807E898CDF86C07E998CDF8FB
:101440007007EA98CDF87407EB98CDF87807E3A811
:1014500039460DF011FEE3AEE398CDF85807E49855
:10146000CDF85C07E598CDF86007E698CDF86407FD
:10147000E798CDF86807E898CDF86C07E998CDF8BB
:101480007007EA98CDF87407EB98CDF878073046E6
:1014900051463A460EF028F805F5CF57B4223846A3
:1014A0003146FEF754FF484629460DF019FF0DF26C
:1014B0004C7A5846514688EC030A09F035FD0DF583
:1014C000E26639463046524688EC030A0DF0E0FEEB
:1014D000E3A831462A46FFF73BFEE3AEE3982860D7
:1014E000E4986860E598A860E698E860E798286165
:1014F000E8986861E998A861EA98E861EB98286241
:10150000EC986862ED98A862EE98E862EF9828631C
:10151000F0986863F198A863304639464A460DF062
:10152000ABFF42F6487102AFC2F200413846324684
:1015300009F0D6FC4FF4617230463946FEF707FFDA
:1015400002AF3146019E384632460DF025FF4FF47A
:10155000617230463946FEF7FAFE95ED063AD4ED53
:10156000140A95ED030A94ED116A30EEC33A95ED35
:10157000041A95ED074A94ED127A84ED143A94ED2D
:10158000153A36EE400A95ED052A95ED085AD4ED48
:10159000131A33EE443A94ED164A84ED110A37EEED
:1015A000410A286802906868039004F1240084EDE1
:1015B000153A34EE453A84ED120A31EEC20A84ED52
:1015C000163A84ED130A012190EC080BA8680490E8
:1015D00002A809F029F804F1240080EC080B08F0B7
:1015E000C3FFA4F10C01204604ED030A44ED020AF6
:1015F00004ED011A00F088FB24212846FEF7C0FE06
:101600000DF6141DBDE8F08F44F63850C2F20040CC
:1016100001F0B2B80000000044F6B050C2F2004041
:1016200001F0AAB80000000044F62860C2F20040B1
:1016300001F0A2B80000000044F6C040C2F2004031
:1016400001F09AB80000000045F20800C2F2004024
:1016500001F092B80000000044F6A060C2F2004021
:1016600001F08AB80000000044F61870C2F2004091
:1016700001F082B80000000045F28000C2F2004094
:1016800001F07AB80000000044F69070C2F2004009
:1016900001F072B80000000040F20F42D0F800C024
:1016A000C4F20202944510DC6F22C4F20202944597
:1016B00020DC3F22C4F20202944536DC1022C4F240
:1016C0000202944554D028224EE040F26F42C4F208
:1016D000020294451ADC40F23F42C4F202029445F1
:1016E0002ADC40F21042C4F20202944540D040F29B
:1016F000284239E09F22C4F20202944525DC702280
:10170000C4F20202944533D088222DE040F29F4279
:10171000C4F2020294451FDC40F27042C4F202029D
:10172000944525D040F288421EE04022C4F20202D5
:1017300094451DD0582217E040F24042C4F2020204
:10174000944515D040F258420EE0A022C4F20202A5
:1017500094450DD0B82207E040F2B842C4F202022C
:10176000944505D040F2A042C4F20202944517D13C
:101770000CF0F8024AF6AB23103ACAF6AA23A2FBF1
:10178000033109A35F2AC1F302115B5C40F2FF3110
:101790002CEA0101C36588BF0431816508467047A2
:1017A0002CF0FF01F9E700BF000610160006101626
:1017B00070B540F26F44D0F800C0C4F20204D0F813
:1017C00058E0A44519DC9F25C4F20205AC4531DC84
:1017D0005725C4F20205AC4556DC1025C4F20205BB
:1017E000AC4500F092802825C4F20205AC4500F01B
:1017F0008C804025C4F2020584E045F22F45C5F6F1
:101800000205AC452BDC40F2B745C4F20205AC45FD
:1018100048DC40F27045C4F20205AC4575D040F298
:101820008845C4F20205AC456FD040F2A045C4F231
:10183000020567E040F22745C4F20205AC4540DCF2
:10184000A025C4F20205AC455FD0B825C4F202055C
:10185000AC455AD040F21045C4F2020552E045F2C0
:101860006B45C5F60205AC453CDC45F23045C5F696
:101870000205AC4549D045F24445C5F60205AC45E4
:1018800043D045F258453BE05825C4F20205AC452B
:101890003BD07025C4F20205AC4536D08825C4F291
:1018A00002052FE040F2B845C4F20205AC452CD049
:1018B00045F20845C5F60205AC4526D045F21C4563
:1018C0001EE040F22845C4F20205AC451DD040F2AE
:1018D0004045C4F20205AC4517D040F25845C4F269
:1018E00002050FE045F26C45C5F60205AC450CD08B
:1018F00045F29445C5F60205AC4506D045F2804553
:10190000C5F60205AC4540F0D180456EC66E002E8E
:10191000866E6E601CBFD0E91C566E60A44515DC57
:101920009F24C4F20204A4452BDC5724C4F2020411
:10193000A4454EDC1024C4F20204A44576D0282429
:10194000C4F20204A44571D040246BE045F22F4458
:10195000C5F60204A44527DC40F2B744C4F20204F1
:10196000A44542DC40F27044C4F20204A4455DD0B8
:1019700040F28844C4F20204A44557D040F2A04487
:1019800050E040F22744C4F20204A4453CDCA02409
:10199000C4F20204A44549D0B824C4F20204A44508
:1019A00044D040F210443DE045F26B44C5F60204D9
:1019B000A44553DC45F23044C5F60204A4455FD08B
:1019C00045F24444C5F60204A44559D045F25844B2
:1019D00052E05824C4F20204A44527D07024C4F273
:1019E0000204A44522D088241CE040F2B844C4F28A
:1019F0000204A4451AD045F20844C5F60204A445E1
:101A00003ED045F21C4437E040F22844C4F20204C0
:101A1000A4450BD040F24044C4F20204A44505D0D2
:101A200040F25844C4F20204A4453FD18468C06D1A
:101A300000F01F003F2505FA00F0CEF80800DCF8A2
:101A40000000402C20F48020CCF80000CCF80430BA
:101A500023D0CCF80810CCF80C2070BD45F26C44B3
:101A6000C5F60204A4450BD045F28044C5F6020435
:101A7000A44505D045F29444C5F60204A44515D109
:101A8000C46D806804F01F040125402805FA04F4A1
:101A9000CEF80440CCF8043004D1CCF80820CCF8BF
:101AA0000C1070BDCCF80810CCF80C2070BD0000F4
:101AB000704700000000000045F6183444F2E87555
:101AC000C2F20044C2F2004580222046294605F0B9
:101AD000CFFF44F2E47740F6C816C2F20047C2F2E4
:101AE000004600BF386800224FF0FF3331460DF04A
:101AF000EBFD80222046294605F0BAFFF2E7000000
:101B000045F6340040F2A011C2F20040C2F200419A
:101B10004FF4006205F0ACFF0DF01AFA43F24031C9
:101B200046F6A80A46F6D807C2F20041C2F2014AB8
:101B300040F6C019C2F2014740F6B81B40F6B4188F
:101B4000C2F20049C2F2004B0AF12004C2F200487E
:101B500007F1200508600BE045F6340040F2A011C3
:101B60004FF40062C2F20040C2F2004105F080FF73
:101B700040F6A4104FF0FF31C2F2004000680DF0B3
:101B80007FFE40F6BC100022C2F200400023514606
:101B900000680DF099FDD9F80000002200233946B5
:101BA0000DF092FD0646DBF80000002200232146DE
:101BB0000DF08AFDD8F800000022002329460DF020
:101BC00083FD002EC8D140F6A810C2F20040006884
:101BD0000DF0F2FEC0E7000040F6DC1643F22034C0
:101BE00043F23035C2F20046C2F20044C2F2004570
:101BF000306800224FF0FF3321460DF065FD30685C
:101C00000022002329460DF05FFDF1E700000000EF
:101C10008CB04FF4FA600DF00FFD07F041F807F0BB
:101C2000E3FA0DF095F940F6D81B40F2801441F22A
:101C3000342541F2903640F6A81A40F6DC17C2F27D
:101C4000004BC2F20044C2F20045C2F20046C2F2AA
:101C5000004A0DF11009C2F20047E84622E000BF39
:101C60000DF076F90790D6F88C100491D6F8901004
:101C70000591D6F894100691D6F880100390D6F806
:101C800084000091D6F88810CDE90101386800225F
:101C9000002349460DF0ACFD386800220023414680
:101CA0000DF0A6FDDBF8000000224FF0FF332146C7
:101CB0000DF00AFDDBF800000022002329460DF09C
:101CC00003FD30462946224607F022F908F004FBBE
:101CD000DAF8000000210DF0D3FD0028C0D14846FD
:101CE0000DF00AF94846FFF723FBB9E700000000B2
:101CF000082001F075BF0000EFF3108072B600BF3E
:101D0000FEE700000000000010B52DED0C8B91EDFA
:101D1000020A0446B7EEC0AA91ED00BA91ED018A1D
:101D2000B0EE4A0B11F078FCB0EE409BB7EEC88ADB
:101D3000B0EE480B11F070FC29EE000BB7EEC00BB3
:101D400084ED000AB0EE4A0B12F022F9B7EECB9AFE
:101D5000B0EE40BBB0EE490B11F05EFCB0EE40CBF4
:101D6000B0EE4A0B11F058FCB0EE40DBB0EE480B81
:101D700012F00EF92DEE00DBB0EE490B12F008F96F
:101D80002DEE000BABEE4C0BB7EEC00B84ED010A51
:101D9000B0EE4A0B12F0FCF8B0EE40BBB0EE490BCF
:101DA00012F0F6F8B0EE40CBB0EE4A0B11F034FC76
:101DB000B0EE40DBB0EE480B12F0EAF82DEE00DB9F
:101DC000B0EE490B11F028FC2DEE000BABEE0C0B26
:101DD000B7EEC00B84ED020AB0EE4A0B12F0D8F851
:101DE000B0EE40BBB0EE480B11F016FC2BEE000B32
:101DF000B7EEC00B84ED030AB0EE4A0B11F00CFCF9
:101E0000B0EE40BBB0EE490B11F006FCB0EE40CB9B
:101E1000B0EE4A0B12F0BCF8B0EE40DBB0EE480B6F
:101E200012F0B6F82DEE00DBB0EE490B12F0B0F870
:101E30002DEE000BABEE0C0BB7EEC00B84ED040ADD
:101E4000B0EE490B12F0A4F8B0EE40BBB0EE4A0B76
:101E500011F0E2FBB0EE40CBB0EE4A0B12F098F876
:101E6000B0EE40ABB0EE480B12F092F82AEE00ABA9
:101E7000B0EE490B11F0D0FB2AEE000BABEE4C0B91
:101E8000B7EEC00B84ED050AB0EE480B12F080F8F7
:101E9000B7EEC00BB1EE400A84ED060AB0EE480B77
:101EA00011F0BAFBB0EE40ABB0EE490B12F070F897
:101EB0002AEE000BB7EEC00B84ED070AB0EE480B1C
:101EC00011F0AAFBB0EE408BB0EE490B11F0A4FB71
:101ED00028EE000BB7EEC00B84ED080ABDEC0C8BAE
:101EE00010BD00000000000080B52DED0C8BB6EE9B
:101EF00000CB90ED020A90ED01AAB7EEC00A90ED7A
:101F000000DA20EE0C9BB0EE490B11F085FBB0EE31
:101F1000408BB0EE490B12F03BF8B7EECA1AB0EEA8
:101F200040AB21EE0C9BB0EE490B11F075FBB0EE0F
:101F300040BBB0EE490B12F02BF8B7EECD1A21EEF4
:101F40000C9BB0EE40CBB0EE490B11F065FBB0EE50
:101F500040DBB0EE490B12F01BF82AEE0C1B28EE0A
:101F60000B5B28EE0C3B21EE004B21EE4D1B2AEEC5
:101F70000B6BA5EE0D4B23EE0D2B23EE403BA5EE98
:101F8000001BA6EE002BA6EE0D3BB0EE440BBDEC05
:101F90000C8B80BD0000000045F6842440F63425FB
:101FA000C2F20044C2F200454FF4006220462946C6
:101FB00005F05EFD40F6FC1740F61C26C2F2004715
:101FC000C2F20046386800224FF0FF3331460DF070
:101FD0007BFB4FF400622046294605F049FDF1E7FE
:101FE0002DE9F041044601F0DFFE14B3054694F8F4
:101FF0003500022820D140F20F462768C4F20206BD
:1020000040F26F48B7426FF00E00C4F2020817DCCE
:102010006F21C4F202018F4223DC3F21C4F202018E
:102020008F4239DC1021C4F202018F4258D028219E
:1020300051E00120BDE8F08180206065012040E290
:1020400047451ADC40F23F41C4F202018F422ADCCC
:1020500040F21041C4F202018F4241D040F22841C7
:1020600039E09F21C4F202018F4225DC7021C4F2C5
:1020700002018F4234D088212DE040F29F41C4F20A
:1020800002018F421FDC40F27041C4F202018F4214
:1020900026D040F288411EE04021C4F202018F4266
:1020A0001ED0582117E040F24041C4F202018F4295
:1020B00016D040F258410EE0A021C4F202018F4236
:1020C0000ED0B82107E040F2B841C4F202018F42BD
:1020D00006D040F2A041C4F202018F42394607D136
:1020E0003946386820F01E0041F8140B6FF080006C
:1020F0000A68474500EA0200086019DC9F20C4F224
:102100000200874231DC5720C4F20200874256DCCD
:102110001020C4F20200874200F091802820C4F20F
:102120000200874200F08B804020C4F2020084E06D
:1021300045F22F40C5F6020087422BDC40F2B74043
:10214000C4F20200874248DC40F27040C4F2020050
:10215000874274D040F28840C4F2020087426ED0B9
:1021600040F2A040C4F2020067E040F22740C4F20F
:102170000200874240DCA020C4F2020087425ED009
:10218000B820C4F20200874259D040F21040C4F295
:10219000020052E045F26B40C5F6020087423CDC8B
:1021A00045F23040C5F60200874248D045F244402F
:1021B000C5F60200874242D045F258403BE0582025
:1021C000C4F2020087423AD07020C4F20200874273
:1021D00035D08820C4F202002FE040F2B840C4F2AB
:1021E000020087422BD045F20840C5F60200874224
:1021F00025D045F21C401EE040F22840C4F2020007
:1022000087421CD040F24040C4F20200874216D000
:1022100040F25840C4F202000FE045F26C40C5F6AF
:10222000020087420BD045F29440C5F60200874277
:1022300005D045F28040C5F60200874204D1206EE9
:10224000016821F480710160386820F00100386075
:102250003868C0070BD001F0A7FD401B0628F7D354
:1022600020206065032084F83500012029E12068E2
:10227000B04210DC6F21C4F2020188421CDC3F2115
:10228000C4F20201884232DC1021C4F20201884209
:1022900050D028214AE040451ADC40F23F41C4F2C8
:1022A000020188422ADC40F21041C4F20201884255
:1022B00040D040F2284139E09F21C4F20201884217
:1022C00025DC7021C4F20201884233D088212DE040
:1022D00040F29F41C4F2020188421FDC40F270418B
:1022E000C4F20201884225D040F288411EE040211C
:1022F000C4F2020188421DD0582117E040F240414B
:10230000C4F20201884215D040F258410EE0A021EB
:10231000C4F2020188420DD0B82107E040F2B84172
:10232000C4F20201884205D040F2A041C4F2020189
:10233000884259D1D4E9161202F01F023F2303FA52
:1023400002F28A60404559DC9F21C4F202018842B2
:1023500014DC5721C4F20201884226DC1021C4F2A9
:102360000201884200F09D802821C4F202018842C7
:1023700000F097804021C4F2020190E040F2274132
:10238000C4F2020188421EDCA021C4F2020188428C
:1023900000F08780B821C4F20201884200F08180F9
:1023A00040F21041C4F2020179E05821C4F2020166
:1023B000884276D07021C4F20201884271D088210F
:1023C000C4F202016BE040F22841C4F202018842EB
:1023D00067D040F24041C4F20201884261D040F22D
:1023E0005841C4F202015AE0D4E9161202F01F0269
:1023F000012303FA02F24A604045A5DD45F22F4170
:10240000C5F60201884216DC40F2B741C4F202016F
:10241000884225DC40F27041C4F20201884240D07B
:1024200040F28841C4F2020188423AD040F2A04111
:10243000C4F2020133E045F26B41C5F60201884265
:102440001DDC45F23041C5F60201884229D045F233
:102450004441C5F60201884223D045F258411CE0B0
:1024600040F2B841C4F2020188421AD045F2084154
:10247000C5F60201884214D045F21C410DE045F238
:102480006C41C5F6020188420BD045F29441C5F675
:102490000201884205D045F28041C5F6020188421A
:1024A0000BD1616EA26EE06E4A6030B1016821F41A
:1024B00080710160D4E91C014160012084F835007D
:1024C0000020002184F83410BDE8F08100000000F5
:1024D00080B5D8B190F83510022919D140F20F42D9
:1024E0000168C4F20202914216DC6F23C4F20203B7
:1024F000994226DC3F23C4F2020399423CDC1023BC
:10250000C4F2020399425AD0282354E0012080BD2E
:1025100080214165012080BD40F26F43C4F2020377
:1025200099421ADC40F23F43C4F2020399422ADC8A
:1025300040F21043C4F20203994240D040F22843D3
:1025400039E09F23C4F20203994225DC7023C4F2D0
:102550000203994233D088232DE040F29F43C4F216
:10256000020399421FDC40F27043C4F20203994215
:1025700025D040F288431EE04023C4F20203994272
:102580001DD0582317E040F24043C4F202039942A1
:1025900015D040F258430EE0A023C4F20203994242
:1025A0000DD0B82307E040F2B843C4F202039942C9
:1025B00005D040F2A043C4F2020399426ED1914289
:1025C0004FF0040280F8352010DC6F20C4F20200C6
:1025D000814220DC3F20C4F20200814236DC102020
:1025E000C4F20200814253D028204EE040F26F40F6
:1025F000C4F2020081421ADC40F23F40C4F2020001
:1026000081422ADC40F21040C4F2020081423FD0F5
:1026100040F2284039E09F20C4F20200814225DCCC
:102620007020C4F20200814232D088202DE040F2B6
:102630009F40C4F2020081421FDC40F27040C4F2AD
:102640000200814224D040F288401EE04020C4F2C3
:10265000020081421CD0582017E040F24040C4F2F2
:102660000200814214D040F258400EE0A020C4F293
:10267000020081420CD0B82007E040F2B840C4F21A
:102680000200814204D040F2A040C4F20200814224
:10269000086820F001000860002080BD0A6822F070
:1026A0000E020A6045F25742C5F6020291420A68DC
:1026B00022F001020A600EDC45F22F42C5F602024A
:1026C000914217DC45F20842C5F60202914226D03B
:1026D00045F21C421FE045F27F42C5F602029142DC
:1026E00011DC45F25842C5F60202914217D045F27C
:1026F0006C4210E045F23042C5F6020291420ED023
:1027000045F2444207E045F29442C5F60202914286
:1027100005D045F28042C5F6020291421AD1D0E9B5
:10272000181CD0E916E30A6822F480720A6003F0EC
:102730001F01012202FA01F1CEF80410816ECCF8DB
:102740000410C16E31B10A6822F480720A60D0E9C7
:102750001C124A60012180F83510026D002180F8BA
:1027600034100AB190470021084680BD00000000E7
:10277000406D7047000000002DE9F04381B000215A
:10278000009140F228010446C2F2004148F2B5121D
:10279000C1F64E32A56D096840F26F490068C4F277
:1027A0000209A1FB021848452E682A6815DC9F2102
:1027B000C4F2020188422BDC5721C4F20201884294
:1027C0004FDC1021C4F20201884278D02821C4F2E3
:1027D0000201884273D040216CE045F22F41C5F6DA
:1027E0000201884227DC40F2B741C4F2020188426C
:1027F00043DC40F27041C4F2020188425FD040F2F3
:102800008841C4F20201884259D040F2A04151E00F
:1028100040F22741C4F2020188423DDCA021C4F20B
:10282000020188424BD0B821C4F20201884246D04E
:1028300040F210413EE045F26B41C5F6020188428C
:1028400075DC45F23041C5F60201884200F0828015
:1028500045F24441C5F6020188427BD045F2584119
:1028600073E05821C4F20201884228D07021C4F2DA
:102870000201884223D088211CE040F2B841C4F212
:10288000020188421BD045F20841C5F60201884288
:1028900060D045F21C4158E040F22841C4F20201E8
:1028A00088420CD040F24041C4F20201884206D076
:1028B00040F25841C4F20201884240F05884E16D70
:1028C000082201F01F018A40324200F0168140F2D6
:1028D0000F43C4F2020398424FF0040313DC6F2746
:1028E000C4F20207B84200F391803F27C4F2020706
:1028F000B84200F3D2801027C4F20207B84200F0B9
:10290000F0802827E8E0484500F38C8040F23F47FC
:10291000C4F20207B84200F3C78040F21047C4F285
:102920000207B84200F0DD8040F22847D4E045F2CB
:102930006C41C5F6020188420CD045F28041C5F6D3
:102940000201884206D045F29441C5F60201884250
:1029500040F00D840368E16D01F01F01042707FAC0
:1029600001F6164218BF13F004072CD1022707FA0C
:1029700001F6164218BF13F002076AD1CA401207C7
:1029800040F1F58313F0080200F0F18340F20F42AA
:10299000C4F2020290426FF01C0200F3FF826F2328
:1029A000C4F20203984200F331833F23C4F20203CE
:1029B000984200F366831023C4F20203984200F0A9
:1029C000988328238FE319046E603AD4990600F1A6
:1029D000CA8340F20F41C4F2020188426FF008013D
:1029E00000F301836F22C4F20202904200F32D83B0
:1029F0003F22C4F20202904200F38D831022C4F2FF
:102A00000202904200F0AC832822A3E39F27C4F285
:102A10000207B84251DC7027C4F20207B84260D006
:102A2000882759E040F29F47C4F20207B8424BDCC6
:102A300040F27047C4F20207B84252D040F28847D1
:102A40004AE0D80300F1A682A16C002940F09D82E3
:102A50008DE319046E6000F1B482990600F1D3830E
:102A600040F20F41C4F2020188426FF0140100F3FA
:102A70000F836F22C4F20202904200F37B833F2255
:102A8000C4F20202904200F390831022C4F20202C8
:102A9000904200F0AF832822A6E34027C4F2020749
:102AA000B8421ED0582717E040F24047C4F2020750
:102AB000B84216D040F258470EE0A027C4F20207F1
:102AC000B8420ED0B82707E040F2A047C4F2020790
:102AD000B84206D040F2B847C4F20207B84218BF65
:102AE000082307681F4208D0036823F0040303602B
:102AF000AA60626D42F00102626501228A403242A0
:102B00006FD040F20F43C4F20203984210DC6F23EF
:102B1000C4F2020398421CDC3F23C4F20203984231
:102B200032DC1023C4F20203984251D028234AE039
:102B300048451ADC40F23F43C4F2020398422ADCC3
:102B400040F21043C4F20203984241D040F22843BD
:102B500039E09F23C4F20203984225DC7023C4F2BB
:102B60000203984234D088232DE040F29F43C4F200
:102B7000020398421FDC40F27043C4F20203984201
:102B800026D040F288431EE04023C4F2020398425C
:102B90001ED0582317E040F24043C4F2020398428B
:102BA00016D040F258430EE0A023C4F2020398422C
:102BB0000ED0B82307E040F2B843C4F202039842B3
:102BC00006D040F2A043C4F20203984240F0FF81D5
:102BD000436903F0800323B1AA60626D42F00202F0
:102BE000626504228A4032426FD040F20F43C4F241
:102BF0000203984210DC6F23C4F2020398421CDCEB
:102C00003F23C4F20203984232DC1023C4F20203D1
:102C1000984251D028234AE048451ADC40F23F430D
:102C2000C4F2020398422ADC40F21043C4F20203C9
:102C3000984241D040F2284339E09F23C4F2020376
:102C4000984225DC7023C4F20203984234D08823D2
:102C50002DE040F29F43C4F2020398421FDC40F291
:102C60007043C4F20203984226D040F288431EE02B
:102C70004023C4F2020398421ED0582317E040F2CA
:102C80004043C4F20203984216D040F258430EE08B
:102C9000A023C4F2020398420ED0B82307E040F20A
:102CA000B843C4F20203984206D040F2A043C4F2F3
:102CB0000203984240F09181036803F0020323B1BC
:102CC000AA60626D42F004026265102202FA01F10C
:102CD00031427DD040F20F42C4F2020290424FF0E6
:102CE000080210DC6F23C4F2020398421CDC3F236D
:102CF000C4F20203984232DC1023C4F20203984269
:102D000051D028234AE048451ADC40F23F43C4F240
:102D1000020398422ADC40F21043C4F202039842B4
:102D200041D040F2284339E09F23C4F20203984285
:102D300025DC7023C4F20203984234D088232DE0AE
:102D400040F29F43C4F2020398421FDC40F27043FA
:102D5000C4F20203984226D040F288431EE040238A
:102D6000C4F2020398421ED0582317E040F24043B9
:102D7000C4F20203984216D040F258430EE0A0235A
:102D8000C4F2020398420ED0B82307E040F2A043F9
:102D9000C4F20203984206D040F2B843C4F20203E0
:102DA000984218BF04220368134211D0A960016839
:102DB0004903016806D4C90506D4016821F0080159
:102DC000016001E0080352D4216C09B12046884714
:102DD000E06D00F01F01202000FA01F2324200F005
:102DE000AB8040F20F432068C4F2020398424FF0D8
:102DF000100310DC6F27C4F20207B8421CDC3F2727
:102E0000C4F20207B84236DC1027C4F20207B84207
:102E100055D028274EE048451ADC40F23F47C4F21F
:102E20000207B8422EDC40F21047C4F20207B84253
:102E300045D040F228473DE09F27C4F20207B84240
:102E400029DC7027C4F20207B84238D0882731E065
:102E500040F29F47C4F20207B84223DC40F27047B9
:102E6000C4F20207B8422AD040F2884722E0A16C9F
:102E70000029ABD1ACE74027C4F20207B8421ED00C
:102E8000582717E040F24047C4F20207B84216D074
:102E900040F258470EE0A027C4F20207B8420ED015
:102EA000B82707E040F2A047C4F20207B84206D0B4
:102EB00040F2B847C4F20207B84218BF02230768BD
:102EC0001F4239D0AA6094F83520042A02681BD129
:102ED00022F016020260426922F080024261226CF6
:102EE0000AB9A26C1AB1026822F0080202603F20FF
:102EF0008840A860012084F83500216D0020002959
:102F000084F8340041D132E1510301680CD4C90581
:102F10000ED4016821F010010160012084F8350011
:102F2000002084F8340003E0080301D4616C00E061
:102F3000E16B09B120468847606D002800F01781D9
:102F4000606DC0071DD0042084F8350020684FEA6A
:102F50009821026822F00102026000BF009A01324B
:102F600000928A4202D80268D207F7D10068C007EF
:102F70004FF0030008BF012084F83500002084F8DA
:102F80003400E16C002900F0F280204601B0BDE879
:102F9000F0430847216C0029F7D1E8E0484541DCBF
:102FA00040F23F43C4F20203984200F3848040F2AF
:102FB0001043C4F20203984200F09B8040F2284381
:102FC00091E0D8033DD4616C0029DED1CFE00368E5
:102FD0000023002B7FF400AE03E603680023002BE0
:102FE0007FF46EAE71E648453CDC40F23F42C4F2ED
:102FF0000202904200F3968040F21042C4F20202B4
:10300000904200F0AD8040F22842A3E09F23C4F23A
:103010000203984258DC7023C4F20203984268D03D
:10302000882360E040F29F43C4F20203984252DCDE
:1030300040F27043C4F2020398425AD040F28843EF
:1030400051E0E16B0029A0D191E09F22C4F202027D
:10305000904270DC7022C4F20202904200F0808044
:10306000882277E040F29F42C4F20202904269DC7B
:1030700040F27042C4F20202904271D040F28842A3
:1030800068E04023C4F20203984232D058232AE079
:1030900048457BDC40F23F42C4F20202904200F31A
:1030A0008B8040F21042C4F20202904200F0A280F3
:1030B00040F2284298E040F24043C4F202039842B2
:1030C00017D040F258430EE0A023C4F20203984206
:1030D0000FD0B82307E040F2A043C4F202039842A5
:1030E00007D040F2B843C4F20203984218BF6FF011
:1030F0000E0203681A400260012000FA01F16960C3
:10310000606584F835000020E16C84F83400002903
:103110007FF43BAF2BE04022C4F2020290421FD06A
:10312000582217E040F24042C4F20202904217D007
:1031300040F258420EE0A022C4F2020290420FD0A8
:10314000B82207E040F2A042C4F20202904207D047
:1031500040F2B842C4F20202904218BF6FF004017C
:10316000026811400160216C00297FF40EAF01B0AC
:10317000BDE8F0839F22C4F20202904225DC702257
:10318000C4F20202904235D088222DE040F29F42E4
:10319000C4F2020290421FDC40F27042C4F202020A
:1031A000904227D040F288421EE04022C4F2020240
:1031B00090421FD0582217E040F24042C4F202026F
:1031C000904217D040F258420EE0A022C4F2020210
:1031D00090420FD0B82207E040F2A042C4F20202AF
:1031E000904207D040F2B842C4F20202904218BFA7
:1031F0006FF00A01026811400160012084F8350077
:10320000002084F83400E16B00297FF4BEAEAEE705
:103210002DE9F041044600F0C7FDECB140F26F48E3
:1032200005462068C4F20208404518DC9F21C4F21C
:10323000020188422EDC5721C4F20201884254DC8C
:103240001021C4F2020188427DD02821C4F202017B
:10325000884278D0402171E00120BDE8F08145F23C
:103260002F41C5F60201884227DC40F2B741C4F283
:103270000201884245DC40F27041C4F202018842FA
:1032800061D040F28841C4F2020188425BD040F232
:10329000A04153E040F22741C4F2020188423FDCE2
:1032A000A021C4F2020188424DD0B821C4F202012B
:1032B000884248D040F2104140E045F26B41C5F6EB
:1032C0000201884200F3928045F23041C5F60201C6
:1032D000884200F09D8045F24441C5F602018842D3
:1032E00000F0968045F258418EE05821C4F2020168
:1032F000884228D07021C4F20201884223D088215C
:103300001CE040F2B841C4F2020188421BD045F2F1
:103310000841C5F6020188427AD045F21C4173E0AB
:1033200040F22841C4F2020188420CD040F24041F0
:10333000C4F20201884206D040F25841C4F20201B0
:10334000884240F0C580022184F83510002184F8BD
:103350003410016821F00101016000BF206801689C
:10336000C9070CD000F020FD401B0628F6D3202012
:103370006065032084F835000120BDE8F08148F243
:103380003F0204F108060168CFF61062114065693A
:103390004CCE1143A2691943E3693143266A0D43B8
:1033A000616A2B43042943EA060343EA020303D17B
:1033B000D4E90B652E43334341F20006C5F60046BF
:1033C0003668B6F1005F6CD36568A5F12906202E3A
:1033D00005D23F27CCF2C037F740FF075CD1A5F1FB
:1033E0004F060025042E38BF012556E045F26C41FA
:1033F000C5F6020188420BD045F28041C5F60201B4
:10340000884205D045F29441C5F6020188425FD159
:1034100004F1080E022184F83510002184F83410DC
:103420000168A3699EE80450A2F18005E769B5FA36
:1034300085F566696D09402A4FEA853543EA07023A
:103440006FF3101142EA060208BF102541EADC01C1
:1034500042EA0E022943236A41EAD2014AF6F832CF
:10346000CAF2FD724CF6CD470244CCF6CC4741EA95
:103470001311A2FB072301606FF0030000EA930021
:10348000E0652046FEF708F9E16D012201F01F0119
:1034900002FA01F1416045E00125002D18BF43F417
:1034A000801303600429436923F0070341EA030101
:1034B0002DD1D4E90A5341EA050143B3B2F5005FC7
:1034C00008D09AB9022D16D0012D09D09DB115E072
:1034D00040204DE7032D11D8DFE805F00A0D0A0260
:1034E000A3F1C072B2FA82F2520908E0032D01D2B0
:1034F000012204E002D1C3F3006200E0002232B1F5
:1035000040206065012084F83500BDE8F08141610C
:103510002046FEF7C1F8E16D3F2201F01F0102FADB
:1035200001F181602068404519DC9F21C4F202014D
:10353000884231DC5721C4F20201884256DC102156
:10354000C4F20201884200F092802821C4F20201F4
:10355000884200F08C804021C4F2020184E045F2F0
:103560002F41C5F6020188422BDC40F2B741C4F27C
:103570000201884248DC40F27041C4F202018842F4
:1035800075D040F28841C4F2020188426FD040F207
:10359000A041C4F2020167E040F22741C4F20201F7
:1035A000884240DCA021C4F2020188425FD0B821E9
:1035B000C4F2020188425AD040F21041C4F2020122
:1035C00052E045F26B41C5F6020188423CDC45F20F
:1035D0003041C5F60201884249D045F24441C5F662
:1035E0000201884243D045F258413BE05821C4F2E1
:1035F000020188423BD07021C4F20201884236D0D9
:103600008821C4F202012FE040F2B841C4F2020165
:1036100088422CD045F20841C5F60201884226D0E6
:1036200045F21C411EE040F22841C4F202018842EA
:103630001DD040F24041C4F20201884217D040F24E
:103640005841C4F202010FE045F26C41C5F6020197
:1036500088420CD045F29441C5F60201884206D05A
:1036600045F28041C5F60201884240F0D08045F223
:10367000574C45F6FC01C5F6020CC5F60201604543
:103680000EDC45F22F43C5F60203984217DC45F2E3
:103690000843C5F60203984226D045F21C431FE0BA
:1036A00045F27F43C5F60203984211DC45F25843C8
:1036B000C5F60203984217D045F26C4310E045F27C
:1036C0003043C5F6020398420ED045F2444307E06A
:1036D00045F29443C5F60203984205D045F2804373
:1036E000C5F60203984250D100F0FC034CF6CD47DA
:1036F000083BCCF6CC47A3FB0737A1F1FC05A1F1B1
:103700007C063B0905EB83022266A26803F01F03D7
:103710000127802A666607FA03F2A26601D1002219
:1037200062606268A56ED4E91876D3B2013A072ABE
:103730003B60756015D85E1E072E62D8604501F1AA
:10374000440213DC45F22F47C5F60207B8423CDCC1
:1037500045F20847C5F60207B8424BD045F21C4770
:1037600044E000206067C4E91B0050E045F27F4759
:10377000C5F60207B84231DC45F25847C5F60207E4
:10378000B84237D045F26C4730E000F0F8034AF613
:10379000AB27103BCAF6AA27A3FB073740F20F431B
:1037A000C4F2020308253E09984203F1AA023346F7
:1037B00088BF05EB171340F600059042C4F20205DE
:1037C00028BF334605F180069CE745F23047C5F631
:1037D0000207B8420ED045F2444707E045F2804761
:1037E000C5F60207B84205D045F29447C5F6020770
:1037F000B84213D101EB8300E06601202267B0409C
:10380000606704F16C02002307CA03604A6000206D
:103810006065012184F83510BDE8F08140F60000B4
:10382000C4F2020000F1FC0100F5A072E2E7000022
:10383000B0B5E0B3054690F83400012801D102206C
:10384000B0BD012085F8340095F83500012828D155
:10385000022085F83500002068652868046824F097
:10386000010404602846FDF7A3FF40F20F422868D8
:10387000C4F2020240F26F419042C4F2020118DC2D
:103880006F23C4F20203984224DC3F23C4F20203F4
:1038900098423ADC1023C4F20203984259D02823FC
:1038A00052E04FF400606865002085F83400012084
:1038B000B0BD88421ADC40F23F43C4F20203984292
:1038C0002ADC40F21043C4F20203984241D040F295
:1038D000284339E09F23C4F20203984225DC702379
:1038E000C4F20203984234D088232DE040F29F4373
:1038F000C4F2020398421FDC40F27043C4F2020398
:10390000984226D040F288431EE04023C4F20203CE
:1039100098421ED0582317E040F24043C4F20203FD
:10392000984216D040F258430EE0A023C4F202039E
:1039300098420ED0B82307E040F2B843C4F2020325
:10394000984206D040F2A043C4F20203984240F0ED
:10395000238103680B2464F3440303602B6C1BB1C5
:103960000823046823430360884219DC9F23C4F2C0
:103970000203984231DC5723C4F20203984256DC1A
:103980001023C4F20203984200F091802823C4F26D
:103990000203984200F08B804023C4F2020384E0CB
:1039A00045F22F43C5F6020398422BDC40F2B743A1
:1039B000C4F20203984248DC40F27043C4F20203AE
:1039C000984274D040F28843C4F2020398426ED009
:1039D00040F2A043C4F2020367E040F22743C4F27E
:1039E0000203984240DCA023C4F2020398425ED056
:1039F000B823C4F20203984259D040F21043C4F2F3
:103A0000020352E045F26B43C5F6020398423CDCE8
:103A100045F23043C5F60203984248D045F244438C
:103A2000C5F60203984242D045F258433BE0582382
:103A3000C4F2020398423AD07023C4F202039842BF
:103A400035D08823C4F202032FE040F2B843C4F219
:103A5000020398422BD045F20843C5F60203984270
:103A600025D045F21C431EE040F22843C4F2020375
:103A700098421CD040F24043C4F20203984216D050
:103A800040F25843C4F202030FE045F26C43C5F61E
:103A9000020398420BD045F29443C5F602039842C4
:103AA00005D045F28043C5F6020398426ED12B6ED5
:103AB0001C68E40303D51C6844F480741C60EB6E3E
:103AC0001BB11D6845F480751D60904210DC6F21AC
:103AD000C4F2020188421CDC3F21C4F20201884288
:103AE00032DC1021C4F2020188424FD028214AE082
:103AF00088421ADC40F23F41C4F2020188422ADCCB
:103B000040F21041C4F2020188423FD040F2284105
:103B100039E09F21C4F20201884225DC7021C4F201
:103B20000201884232D088212DE040F29F41C4F248
:103B3000020188421FDC40F27041C4F20201884257
:103B400024D040F288411EE04021C4F202018842A4
:103B50001CD0582117E040F24041C4F202018842D3
:103B600014D040F258410EE0A021C4F20201884274
:103B70000CD0B82107E040F2B841C4F202018842FB
:103B800004D040F2A041C4F202018842016841F031
:103B9000010101600020B0BD0368052464F3430304
:103BA00003602B6C002B3FF4DFAE0423D9E600004A
:103BB000B0B5044600F0F8F840F211110546C2F223
:103BC0000041621C097818BF0C4400BF00F0ECF8FB
:103BD000401BA042FAD3B0BD7047000000000000B7
:103BE0008821C5F600010A68024208BF70470860D4
:103BF000FFF7F2BF000000002DE9F04F82B00C6823
:103C0000002C00F0C58000F1264242F2004302F190
:103C1000FF72C5F602030A2798424FEAB22540F226
:103C2000040E08BF0927092DC5F6000E38BF4FEA5C
:103C3000B22700224FF0030C00970026002709E06E
:103C400001370C6834FA07F306F1020602F10402A8
:103C500000F09E80012303FA07FA14EA0A09EFD064
:103C6000D1F804B00BF00304A4F10108B8F1010F7E
:103C700011D8D0F808800CFA06F3CD6828EA0303BF
:103C8000B5402B438360CBF30015436823EA0A0356
:103C9000BD402B434360032C1DD0C3680CFA06F5CE
:103CA000AB438D68B540022C43EA0503C36012D1D3
:103CB0006FF0030302F01C0503EA57030F240344CB
:103CC00004FA05FAD3F820800C6928EA0A08AC4007
:103CD00044EA08041C6203680CFA06F44D68A34326
:103CE00005F0030415F4403F04FA06F443EA040324
:103CF0000360A5D044F2F44440F2084AC5F6020439
:103D0000C5F6000A0F25236843F0020323602368E9
:103D100003F00203019327F00303019C02F00C045B
:103D200053F80A80A54028EA0508009D05FA04F426
:103D300044EA080443F80A404FF0B04ADAF8008039
:103D40004C6848EA0905E30258BF28EA0905A302BE
:103D5000CAF80050DEF8008048EA090558BF28EA92
:103D60000905A303CEF80050DEF8808048EA090573
:103D700058BF28EA0905E403CEF88050DEF87C300D
:103D800043EA090558BF23EA0905CEF87C5057E7F6
:103D900002B0BDE8F08F000041F20000C5F600401F
:103DA0000068000C7047000046F2AC10C2F20140FF
:103DB000006870470000000040F2111046F2AC119C
:103DC000C2F20040C2F2014100780A681044086063
:103DD000704700000000000080B5032000F0D8F814
:103DE00002F00AF844F2184144F6F463C5F6020101
:103DF000C0F601030A68096801F00F01C2F303224B
:103E0000595C9A5C01F01F0102F01F02D04040F2A1
:103E10002C02C2F2004220FA01F1116040F22801A6
:103E2000C2F200410860002000F00AF800281CBF20
:103E3000012080BD00F054F8002080BD000000008B
:103E4000B0B58AB00F283ED804467520002221461E
:103E5000002500F06DF8752000F05AF840F21410BB
:103E6000C2F20040046044F2F040C5F6020001686E
:103E700041F400310160006801A900F400300290B3
:103E8000029802A801F004FF01F086FF4DF683615D
:103E90004000C4F21B3144F20042A0FB010145F294
:103EA0005070C2F200404FF0FF33C4F201020260D2
:103EB00003EB9141C0E9011540F2E731C0E9031578
:103EC00002F0AAFF10B101200AB0B0BD45F2507057
:103ED000C2F2004003F01CF80AB0B0BD00000000C0
:103EE00081B044F2F4400022C5F60200016841F0BE
:103EF0000201016000680F2100F0020000906FF0E5
:103F00000100009B01B000F013B8000000000000A9
:103F1000002848BF704700F01F01012202FA01F19A
:103F20004EF200124009CEF2000242F82010704713
:103F300070B54EF60C5C4FF0FF36CEF2000C00F17F
:103F4000604505F56445DCF80030C3F3022E8EF0C1
:103F50000703042B28BF0423BEF1030406FA03F36E
:103F600021EA030100F00F0338BF0024043B0028BE
:103F7000634406FA04F048BF03F10C05A14022EAAD
:103F8000000008430001287070BD00000000000020
:103F90004EF60C514FF6FF03CEF200010A681A40AC
:103FA00060F30A2242F0806040F0FD7008607047C4
:103FB00001680122C0F8D824002280F8CC24886946
:103FC00040F000608861486D40F08052002042F06F
:103FD00003024A65704700007047000000000000BF
:103FE0000268002051627047B0B5D0F800E0DEF8FA
:103FF0002400D1B1DEF82830B1F1010C00EB1343FD
:104000000BD05FFA8CF10EF58070002450F8045F3D
:1040100001348C4203EB1543F8D30EEB8C0043EADA
:104020000241C0F804110020B0BD40EA0240CEF8C1
:1040300028000020B0BD0000D0F8E00408F014BF54
:1040400001EBC10200EB8202D0F8E004126A08F032
:1040500077BE00000000000001EBC10200EB82020D
:10406000D0F8E004D2F8602208F0C2BE00000000E0
:10407000D0F8E00408F0FCBE10B54AB2044601F0E6
:104080000F00B2F1FF3F00EBC00104EB810205DD40
:1040900002F51571002382F8553203E002F1140194
:1040A0000123537594F894240870012A01D1022049
:1040B00010BD012084F89404206809F0B5FC0020AC
:1040C00084F8940410BD0000B0B50279044601F0F4
:1040D0000F00904201D90120B0BD49B2B1F1FF3FBC
:1040E00009DD00EBC001002304EB810202F515712C
:1040F00082F8553207E000EBC001012304EB810296
:1041000002F11401537594F8942400258D70012A4E
:10411000087001D10220B0BD012084F89404206809
:1041200009F012FE284684F89454B0BD0000000047
:1041300001F00F0101EBC10100EB8100D0F8680232
:10414000704700000000000070B54CB2064601F058
:104150000F00B4F1FF3F00EBC00107DD06EB810467
:10416000002504F5157184F8555206E006EB810C24
:1041700001240CF114018CF815404D7808706FF390
:10418000DF228A60002D0B7118BF4883022B01D1FA
:104190000020487196F89404012801D1022070BDD6
:1041A000012086F89404306809F05EFB002086F850
:1041B000940470BD0000000080B501F00F0E0EEBFE
:1041C000CE0100EB810C0021CCE998238379CCF857
:1041D00068128CF855120CF51571012B8CF854E20D
:1041E00008BFCCF8702200681A4609F0F5FD0020DF
:1041F00080BD000000000000B0B50446007901F069
:104200000F05854201D90120B0BD48B2B0F1FF3F92
:1042100009DD01EBC100002204EB800000F51571FF
:1042200080F8552207E005EBC500012204EB800071
:1042300000F11401427594F8942401208870012A39
:104240000D7001D10220B0BD84F89404206809F0FB
:10425000A3FD2DB9A179206804F29C4209F044FD28
:10426000002084F89404B0BD10B501F00F0C0124B7
:104270000CEBCC0100EB810E714601F814CF4FF02E
:10428000000CC1F814C090F806C04C70CA60BCF1B4
:10429000010F0B6108BFCEF830200068624609F0BC
:1042A0009BFD002010BD00002DE9F04F89B005688E
:1042B0008246284609F00CFF10B109B0BDE8F08F26
:1042C000DAF8000009F034FF0028F6D0D5F8080825
:1042D000C0F30D20CAF8D404DAF8000009F028FF72
:1042E000800705D5DAF80000416901F0020141615B
:1042F000DAF8000005F5006609F01AFFC00605951A
:104300003ED5DAF80000816921F0100181612C6A44
:1043100004F00F05C4F34340062819D0022828D121
:1043200047F6F07014EA000823D005EBC5004FEA09
:1043300018140AEB800705982246D7F8601209F096
:10434000FBFED7F8600200EB1810C7F8600207E028
:104350000AF29C410822059809F0EEFEC4F30A1403
:1043600005EBC5000AEB8000D0F868122144C0F8C4
:104370006812DAF80000816941F010018161059D41
:10438000DAF80000049609F0D3FE0003CDF820A06F
:1043900040F10381DAF8000009F0A6FE002800F0E1
:1043A000FC8006464FF4306800244FF0000B0AF200
:1043B0009C40079009E000BF0BF1010B760808F163
:1043C000200804F1240400F0E880F007F4D05FFA3C
:1043D0008BF9DAF80000494609F0A2FE8246C007D0
:1043E0006CD005EB080001218160089F386808EB5C
:1043F0000001036C8A68BF79012F2AD117073BD4CB
:10440000970658D412F0280F059D57D143F20B0799
:10441000C4F65477BB4202D312F4004248D1089F3D
:10442000002C07EB0402D2F8743209696FF3DF4104
:10443000A3EB0101C2F8681240F0AD80D2F86432FB
:10444000002B00F0A380D2F860020844C2F860029A
:10445000A0E043F20B07C4F65477FF37BB4219D1F3
:10446000100425D49006059D01D520208860089869
:104470004946FFF7F1FD21E043F20B00059DC4F62C
:10448000547083421AD312F4004017D04FF4004006
:10449000886013E03CB90899D1F8641219B9002179
:1044A000079A09F021FC08984946FFF7D5FD04E07A
:1044B0004FF4004000E020208860059D5FEA0A700C
:1044C00026D505EB08000821816043F20B0108980E
:1044D000C4F654714F1E0068056C4044BD428168AB
:1044E00005D911F400411CBF4FF4004181600898C8
:1044F00000F0EAFBBD42059D0AD9089880790128A1
:1045000006D108980121079A006809F0EDFB00BF69
:104510005FEACA6016D45FEA8A701AD45FEA8A60DA
:1045200003D505EB0800202181605FEA8A40DDF8B1
:1045300020A07FF541AF05EB08004FF400518160EA
:104540003AE700BF05EB0800102181605FEA8A703E
:10455000E4D56869000604D50499486840F4806091
:1045600048600898204490F85712012906D100218C
:1045700080F857120898494600F0A2FA05EB0800A7
:10458000022181605FEA8A60CBD4CEE70121079ADD
:1045900009F0AAFB089F384686E7DAF80000AB4628
:1045A00009F0C6FD400340F1E380DAF8000009F0AD
:1045B00093FD002800F0DC80064600270BF5106014
:1045C00003900AF29C40029005E000BF760807F1D4
:1045D000010700F0CD80F007F8D0F9B2DAF800005A
:1045E000079109F089FD0446C007039D0AD1200701
:1045F00032D4E00636D460063AD4A0073ED4200672
:10460000E4D554E0049B07F00F004FF0010C05EBDC
:1046100047120CFA00F0596B21EA00005863C2F807
:1046200008C09AF80600012810D107EBC7000AEB72
:104630008000D0E90712114401623FB9406A28B9ED
:10464000DAF800000121029A09F04EFB5046079962
:10465000FFF7F6FC2007CCD505EB47100821816059
:10466000E006C8D505EB4710102181606006C4D56F
:1046700005EB471040218160A007C0D55846394658
:1046800009F0F2FC07EBC7000AEB800010F8171FD7
:10469000012905D1002101705046079900F00CFA5C
:1046A00005EB47100221816020067FF58FAF07EBF5
:1046B000C7000AEB8000814659F8241FC84658F805
:1046C000042F9142FFF482AF8346DAF80030891A52
:1046D0005BF81C2F914238BF0A4603EB4711069343
:1046E0000332D1F818399BB2B3EB920F28D301F5FE
:1046F000106A00F1200500BFD8F80000D9F80010BA
:1047000081421DD9081A0899DBF80040A0428A7935
:1047100038BF044629680092A3B2DDE9060209F019
:1047200007FE286820442860D8F800002044C8F814
:104730000000E01CDAF8181089B2B1EB900FDBD260
:10474000D9F80000D8F800108842DDF820A0DDF884
:1047500014B03FF63BAF069A07F00F00012101FAB3
:1047600000F0D2F8341821EA0000C2F834082DE72E
:10477000DAF8000009F0DCFCB0F1FF3F049C18DC23
:10478000606820F0010060609AF8CC04012807D12D
:1047900000208AF8CC0400215046FFF71DFC02E0FF
:1047A000504600F075FADAF80000416901F0004166
:1047B0004161DAF8000009F0BBFC00050BD5A068E8
:1047C000C00702D0504600F0A7FADAF800004169AD
:1047D00001F400614161DAF8000009F0A9FC000170
:1047E00018D5DAF80000416901F0006141619AF8DA
:1047F000CC1419B1504600F08FFA0BE001218AF871
:10480000CC14406D0121C0F38300CAF8D004504697
:10481000FFF7E2FBDAF8000009F08AFCC00453D588
:104820006068102120F001006060DAF8000009F0F3
:104830001BFC9AF80400D0B10BF510614FF67F32E3
:104840008A6001380B6823F400130B60C1F808225A
:10485000D1F8003223F40013C1F80032D1F800324D
:1048600043F00063C1F8003201F12001E8D1E069B2
:1048700040F00110E0619AF80F0040B1D4F88400D4
:1048800040F00B00C4F8840004F1440006E06069C5
:1048900042F22B010843606104F1100001680AF242
:1048A0009C4241F00B010160206820F4FE60206012
:1048B0009AF80610DAF8000009F016FADAF80000A3
:1048C000416901F480514161DAF8000009F030FCDF
:1048D00080041CD5DAF8000009F00AF8DAF80000C4
:1048E00009F0E6FB8AF80700DAF8004001F0FCF96D
:1048F0009AF807200146204609F08EFC504600F049
:10490000AFF9DAF80000416901F400514161DAF8C9
:10491000000009F00DFC000708D5504600F0BCF976
:10492000DAF80000416901F008014161DAF800009D
:1049300009F0FEFB000628D50599886920F0800063
:1049400088619AF8040002281FD3012440F27B25D5
:1049500006E000BF9AF8040001342435844214D2E2
:104960001AF805000128F5D104F00F00220600EB2B
:10497000C0000AEB800000F1140158BF00F515716A
:10498000DAF8000009F024FBE4E7DAF8000009F0A7
:10499000CFFBC0022FD59AF80400022825D3059832
:1049A0000AF13C0500F512640126012707E000BF6B
:1049B0009AF80400013720342435874215D2206844
:1049C00029780129F4D1B0F1FF3FF1DC07F00F00A5
:1049D00005F8016C00EBC0000AEB800000F1140147
:1049E000DAF8000009F0F4FAE2E7DAF800004169C9
:1049F00001F480114161DAF8000009F099FB8002AE
:104A000033D59AF80410059D022928D305F53260A4
:104A100001390AF51F72012306E000BF013900F1D8
:104A2000200002F124021AD007681678012EF5D171
:104A3000B7F1FF3FF2DCDAF8D46486EA1747FF07E4
:104A4000ECD102F8013CAF6947F08007AF616F69B4
:104A50003F06E3D40499486840F400704860DAF8EF
:104A60000000416901F400114161DAF8000009F029
:104A70005FFB400008D55046FFF7DEFADAF8000089
:104A8000416901F080414161DAF8000009F050FB12
:104A900040077FF512ACDAF800004468600702D5E1
:104AA0005046FFF7E5FADAF800004168214341601B
:104AB00009B0BDE8F08F0000D0F8E00408F038BA83
:104AC000D0F8E00408F048BA10B582B000285DD0F4
:104AD000044690F8950428B9002084F894042046F0
:104AE00000F06AF8032084F89504206809F0F4F8CF
:104AF000D4E9000194F810C0D4E90223CDF800C035
:104B000008F006FF00283ED12068002109F03CFB98
:104B1000C8BB207960B300EBC00000214FEA800ED3
:104B20004FF0010C00230022E01824339E4502754B
:104B3000C28502F1010280F815C00176C1610162EF
:104B40004162F1D100210022002300BFA0182432CD
:104B5000964580F8543203F1010380F8551280F82D
:104B60005812C0F85C12C0F86012C0F86412EDD19F
:104B7000D4E9000194F810C0D4E90223CDF800C0B4
:104B800008F0B6FF28B1022084F89504012002B095
:104B900010BD00206074012084F89504207B01285A
:104BA00002D12046FFF704FA206808F091FF0020A8
:104BB00002B010BD00000000B0B5B8B0044602A8B5
:104BC000C0210025CDE93655CDE934553395FBF7A5
:104BD000D7FB00212068C4F20801884201D038B018
:104BE000B0BD4FF4802002904FF44010249002A8F2
:104BF000039500F019FA08B1FDF77EF800F0CCF843
:104C000044F2D84433A9C5F60204A06840F001007C
:104C1000A060A06800F00100019001984FF4C0501E
:104C20003390022034900020CDE935000A203790DF
:104C30000020C5F60200FEF7DFFF2068052140F0E6
:104C4000006020602068002200F000600190019860
:104C50006520FFF76DF96520FFF75AF938B0B0BD50
:104C600010B5C179044631B1022901D1012102E018
:104C7000FDF742F80121D4F8E00408F0F9F9D4F87E
:104C8000E004BDE8104008F0A3B9000000000000F7
:104C9000D0F8E00408F0D0B9D0F8E00408F0D8B9B2
:104CA00010B5044690F89404012801D1022010BDEB
:104CB000012084F894046174206809F099FA0020B6
:104CC00084F8940410BD0000D0F8E02400F29C4168
:104CD000104608F0E5B9000010B5044690F89404B9
:104CE000012801D1022010BD2068012184F894140C
:104CF000C168490606D5617B012903D1816B41F466
:104D00008031816309F0A8F9206808F0D1FE002005
:104D100084F8940410BD000010B50446D0F8E004F7
:104D200008F016FA2068D0F8001E41F00101C0F822
:104D3000001EE07A002808BF10BD4EF61050CEF2DB
:104D40000000016841F00601016010BD0000000094
:104D5000B0B544F60C05C5F602052968490729686F
:104D600005D401F00701081A18BF0120B0BD21F0D9
:104D7000070108432860FFF717F8044655F8080CA8
:104D8000800407D4FFF710F8001BB0F57A7FF5D93F
:104D90000120B0BD0020B0BD44F60C00C5F60200F5
:104DA000016841F080710160704700000000000060
:104DB00080B500F099FF44F2204144F6F462C5F654
:104DC0000201C0F601020968C1F30211515C01F051
:104DD0001F01C84080BD000080B544F2384EC5F6C2
:104DE000020E5EF8103C5EF8101C5EF80C2CC1F34D
:104DF000053CDEF80410BCF1000F15D0C908D2063E
:104E000001EAE2716FF35F3100EE101A03F0030163
:104E10000229B8EE400A0CD071B95EF8381C890638
:104E20000DD49FED351A18E000218160C0E9001112
:104E300080BD9FED301A10E09FED2D1A0DE05EF859
:104E4000381C49F20002C0F2D032C1F3C10122FA8B
:104E500001F101EE101AB8EE411ADEF800109FEDD4
:104E6000273A6FF35F2102EE101ADEF80010C1F34B
:104E70004621B8EE422A00EE032A00EE10CAB7EE31
:104E8000003AB8EE400A81EE000A32EE031A02EE52
:104E9000101AB8EE422A20EE010A32EE031A80EE12
:104EA000011ABCEEC11A80ED001ADEF80010C1F341
:104EB000064101EE101AB8EE411A31EE031A80EEE7
:104EC000011ABCEEC11A80ED011ADEF80010C1F320
:104ED000066101EE101AB8EE411A31EE031A80EEA7
:104EE000010ABCEEC00A10EE101A816080BD00BF3E
:104EF0000024744A0024F44A0024744C0000003951
:104F000080B544F2404EC5F6020E5EF8183C5EF8DD
:104F1000181C5EF8142CC1F3055CDEF80410BCF11B
:104F2000000F15D0C908D20501EAE2716FF35F31B5
:104F300000EE101A03F003010229B8EE400A0CD06B
:104F400071B95EF8401C89060DD49FED351A18E042
:104F500000218160C0E9001180BD9FED301A10E092
:104F60009FED2D1A0DE05EF8401C49F20002C0F2E0
:104F7000D032C1F3C10122FA01F101EE101AB8EEEC
:104F8000411ADEF800109FED273A6FF35F2102EE21
:104F9000101ADEF80010C1F34621B8EE422A00EEE6
:104FA000032A00EE10CAB7EE003AB8EE400A81EECE
:104FB000000A32EE031A02EE101AB8EE422A20EE70
:104FC000010A32EE031A80EE011ABCEEC11A80ED1E
:104FD000001ADEF80010C1F3064101EE101AB8EE17
:104FE000411A31EE031A80EE011ABCEEC11A80EDAF
:104FF000011ADEF80010C1F3066101EE101AB8EED6
:10500000411A31EE031A80EE010ABCEEC00A10EE1E
:10501000101A816080BD00BF0024744A0024F44A45
:105020000024744C000000392DE9F04381B004469F
:10503000C07844F22C490007C5F6020901D40025C6
:105040002EE0A06E4FEA305003280DD80025DFE88F
:1050500000F0020E1714D9F80000002540F40030CB
:10506000C9F8000055B913E001253DB910E004F17D
:105070000800022105F00CFC05464DB1A84611E0E0
:1050800004F12800022105F093FC0546002DF5D11E
:10509000D9F82400A16E20F440100843C9F8240078
:1050A0004FF000086078C00730D0A06D042807D802
:1050B000DFE800F00A131C030300FDB1A84625E059
:1050C0000125002DFAD119E0D9F8000040F4003094
:1050D000C9F80000002DF1D110E004F10800002112
:1050E00005F0D6FB0546002DE8D107E004F12800C5
:1050F000002105F05DFC0546002DDFD1D9F8240024
:10510000A16D20F007000843C9F8240060788007EB
:1051100032D5E06D4FEAB010042807D8DFE800F080
:105120000A131C030300FDB1A84625E00125002D4C
:10513000FAD119E0D9F8000040F40030C9F80000B5
:10514000002DF1D110E004F10800002105F0A0FBD2
:105150000546002DE8D107E004F12800002105F004
:1051600027FC0546002DDFD1D9F82400E16D20F49D
:10517000E0700843C9F824006078400734D5D4F8BB
:10518000A8004FEA7050042807D8DFE800F00A139F
:105190001C030300FDB1A84626E00125002DFAD12D
:1051A00019E0D9F8000040F40030C9F80000002DE3
:1051B000F1D110E004F10800002105F069FB05467B
:1051C000002DE8D107E004F12800002105F0F0FBF4
:1051D0000546002DDFD1D9F82C00D4F8A81020F412
:1051E00060000843C9F82C006078000734D5D4F873
:1051F000AC004FEA3060042807D8DFE800F00A135B
:105200001C030300FDB1A84626E00125002DFAD1BC
:1052100019E0D9F8000040F40030C9F80000002D72
:10522000F1D110E004F10800002105F031FB054642
:10523000002DE8D107E004F12800002105F0B8FBBB
:105240000546002DDFD1D9F82C00D4F8AC1020F0A1
:10525000E0600843C9F82C00E078800728D5E06CAE
:105260004FEA3010032806D8DFE800F002091202E6
:10527000B5B1A8461CE00125002DFAD110E0D9F8FF
:10528000000040F40030C9F80000002DF1D107E023
:1052900004F10800022105F0FBFA0546002DE8D1D3
:1052A000D9F82000E16C20F030000843C9F8200054
:1052B0006078C00632D5206E4FEA3030042807D817
:1052C000DFE800F00A131C030300FDB1A84625E047
:1052D0000125002DFAD119E0D9F8000040F4003082
:1052E000C9F80000002DF1D110E004F10800002100
:1052F00005F0CEFA0546002DE8D107E004F12800BC
:10530000002105F055FB0546002DDFD1D9F824001A
:10531000216E20F4E0400843C9F82400607880063C
:1053200026D5606E4FEA3040052807D8DFE800F048
:10533000030A100303039DB1A84619E00125002DBF
:10534000FAD10DE004F10800012105F0A1FA04E012
:1053500004F12800012105F02BFB0546002DEBD1BF
:10536000D9F82400616E20F4E0200843C9F8240035
:105370006078400628D5D4F8B0004FEA3070052890
:1053800007D8DFE800F0030A100303039DB1A84625
:105390001AE00125002DFAD10DE004F108000121E9
:1053A00005F076FA04E004F12800012105F000FB85
:1053B0000546002DEBD1D9F82C00D4F8B01020F020
:1053C000E0400843C9F82C006078000620D5206F23
:1053D000D8B1B0F1005F12D0B0F1805F25D1D9F81B
:1053E000000040F40030C9F8000085B9D9F8240065
:1053F000216F20F040500843C9F8240008E004F170
:105400000800012105F044FA0546002DEED0A8461B
:10541000E078C0072AD0A06C03280AD8DFE800F0A3
:10542000020D1602D5B1A84620E00125002DEED1CF
:10543000DCE70125002DF6D110E0D9F8000040F49A
:105440000030C9F80000002DEDD107E004F108009C
:10545000022105F01DFA0546002DE4D1D9F82000FF
:10546000A16C20F003000843C9F82000A078400692
:1054700042D5D9F8D40340F48070C9F8D403FEF7BC
:1054800093FC0646D9F8D403C00505D4FEF78CFC7E
:10549000801B6528F6D303256DBBD9F84410D4F8DA
:1054A000B400414011F4407F11D0D9F84410D9F82C
:1054B000442042F48032C9F84420D9F8442021F431
:1054C000407122F48032C9F84420C9F84410B0F584
:1054D000807F0FD1FEF768FC064641F2893700BF96
:1054E000D9F84400800705D4FEF75EFC801BB84263
:1054F000F6D3032585B1A8462078C00742D0E06FD7
:105500004FEAF000052823D8DFE800F003262C033B
:1055100003037DB3A84635E04FF6CF73D4F8B4004B
:1055200059F81C2CC0F2FF0300F4407122F47C52A5
:1055300003EA1013B1F5407F08BF1A436FF31F3021
:1055400049F81C2CD9F844100843C9F84400D3E7A3
:105550000125002DDED10DE004F10800012105F048
:1055600097F904E004F12800012105F021FA05462D
:10557000002DCFD1D9F82800E16F20F03800084382
:10558000C9F828002078800724D5A06F052807D8FF
:10559000DFE800F0030A100303039DB1A84619E0F9
:1055A0000125002DFAD10DE004F10800012105F0DC
:1055B0006FF904E004F12800012105F0F9F905462E
:1055C000002DEBD1D9F82800A16F20F00700084387
:1055D000C9F828002078400726D5D4F8940005287B
:1055E00007D8DFE800F0030A100303039DB1A846C3
:1055F0001AE00125002DFAD10DE004F10800012187
:1056000005F046F904E004F12800012105F0D0F985
:105610000546002DEBD1D9F82C00D4F8941020F0D9
:1056200007000843C9F82C002078800628D5D4F854
:1056300090004FEA3070052807D8DFE800F0030A31
:10564000100303039DB1A8461AE00125002DFAD1ED
:105650000DE004F10800002105F01AF904E004F15E
:105660002800022105F0A4F90546002DEBD1D9F858
:105670002800D4F8901020F0E0400843C9F8280032
:105680002078400628D5D4F89C004FEAB0200528A1
:1056900007D8DFE800F0030A100303039DB1A84612
:1056A0001AE00125002DFAD10DE004F108000021D7
:1056B00005F0EEF804E004F12800022105F078F985
:1056C0000546002DEBD1D9F82C00D4F89C1020F41D
:1056D000E0500843C9F82C002078000628D5D4F8FB
:1056E000A0004FEA7030052807D8DFE800F0030A71
:1056F000100303039DB1A8461AE00125002DFAD13D
:105700000DE004F10800002105F0C2F804E004F106
:105710002800022105F04CF90546002DEBD1D9F8FF
:105720002C00D4F8A01020F460400843C9F82C00E5
:105730002078000716D5D4F88400B0F5805F08D132
:1057400004F12800022105F033F9002818BF4FF0BA
:105750000108D9F82800D4F8841020F440500843F8
:10576000C9F828002078C00616D5D4F89800B0F5FE
:10577000807F08D104F12800022105F019F90028E2
:1057800018BF4FF00108D9F82C00D4F8981020F475
:1057900040700843C9F82C00A078000722D5D4F83F
:1057A000A400B0F5003F1AD0B0F5803F11D0C8BBBF
:1057B00004F10800002105F06BF805468DB9D9F811
:1057C0002C00D4F8A41020F440300843C9F82C0071
:1057D00008E004F12800022105F0EAF80546002D52
:1057E000EDD0A846A078400729D5D4F88800B0F5B8
:1057F000401F21D0B0F5001F18D0B0F5801F40F039
:10580000BE80D9F8000040F40030C9F80000ADB9FE
:10581000D9F82800D4F8881020F440100843C9F8BB
:1058200028000CE00125002DDBD1C8E704F1280099
:10583000012105F0BDF80546002DE9D0A846A07865
:10584000C00720D0206DB0F5803F10D0B8B9D9F88E
:10585000000040F40030C9F800009DB9D9F82000DC
:10586000216D20F480300843C9F820000BE004F1DA
:105870000800022105F00CF805461DB9EEE70125E8
:10588000002DEBD0A846E078800608D504F128006A
:10589000022105F08DF8002818BF4FF00108D4E967
:1058A00000108A037AD5D4F880206FF0010303EB4F
:1058B0003223022B0AD34FEA32233BB1012B63D1AF
:1058C000D9F8003043F40033C9F80030002D5ED021
:1058D000CA0266D4CA006ED48A0278D44A0000F1A3
:1058E0008180CA0F40F08E80090200F19680C007C7
:1058F00007D004F10800002104F0CAFF002818BFF7
:1059000005462079800707D504F10800012104F03D
:10591000BFFF002818BF05462079400707D504F1CE
:105920000800022104F0B4FF002818BF05462079C2
:10593000000707D504F12800002105F039F80028F8
:1059400018BF05462079C00607D504F128000121BB
:1059500005F02EF8002818BF05462079800607D5E7
:1059600004F12800022105F023F8002818BF0125C2
:10597000002D18BF0125284601B0BDE8F0830125A0
:10598000002D7FF45BAF43E70125002DA0D1D9F8AE
:10599000283023F440731A43C9F828204546CA0228
:1059A00098D5D9F82420636F22F000421A43C9F831
:1059B0002420CA0090D559F81C2CD4F8B83022F411
:1059C00080421A4349F81C2C8A027FF587AFD9F828
:1059D0002420E36E22F080721A43C9F824204A0082
:1059E0007FF57FAF59F81C2C22F4004249F81C2C9B
:1059F000D4F8BC2059F81C3C1A4349F81C2CCA0F97
:105A00003FF472AFD9F82020636D22F040521A4360
:105A1000C9F8202009027FF56AAFD9F82810D4F818
:105A20008C2021F440011143C9F82810C0077FF4ED
:105A300060AF66E7000000002DE9F04381B0002868
:105A400000F0F68042F200080446C5F200288946BC
:105A5000D8F8000000F00F0088420ED2D8F80000FD
:105A600020F00F0040EA0900C8F80000D8F8000054
:105A700000F00F00484540F0DB80206844F21847F2
:105A80004107C5F602070AD521693A6802F070029B
:105A9000914204D93A6822F070021143396001073B
:105AA0000AD561697A6802F07002914204D97A6875
:105AB00022F0700211437960C1060AD5A1697A68A3
:105AC00002F4E062914204D97A6822F4E062114360
:105AD000796081060AD5E169BA6802F070029142E4
